:020000040800F2
:10000000000005202D1B0008311A0008331A0008D3
:10001000351A0008371A0008391A000800000000D5
:1000200000000000000000000000000061950008D2
:100030003B1A0008000000000196000865960008C1
:100040007D1B00087D1B00087D1B00087D1B000830
:100050007D1B00087D1B00087D1B00087D1B000820
:100060007D1B00087D1B00087D1B00087D1B000810
:100070007D1B00087D1B00087D1B00087D1B000800
:100080007D1B00087D1B00087D1B00087D1B0008F0
:100090007D1B00087D1B00087D1B00087D1B0008E0
:1000A0007D1B00087D1B00087D1B00087D1B0008D0
:1000B0007D1B00087D1B00087D1B00083D1A000801
:1000C000491A00087D1B00087D1B00087D1B0008E5
:1000D0007D1B00087D1B00087D1B00087D1B0008A0
:1000E0007D1B00087D1B00087D1B00087D1B000890
:1000F0007D1B00087D1B00087D1B00087D1B000880
:100100007D1B00087D1B00087D1B00087D1B00086F
:100110007D1B00087D1B0008551A00087D1B000888
:100120007D1B00087D1B00087D1B00087D1B00084F
:100130007D1B00087D1B00087D1B00087D1B00083F
:100140007D1B00087D1B00087D1B00087D1B00082F
:100150007D1B00087D1B00087D1B00087D1B00081F
:100160007D1B00087D1B00087D1B00087D1B00080F
:100170007D1B00087D1B00087D1B0008000000009F
:100180007D1B00087D1B00087D1B00087D1B0008EF
:100190007D1B00087D1B00087D1B00087D1B0008DF
:1001A000611A00087D1B00086D1A00087D1B0008FD
:1001B0007D1B00087D1B00087D1B00087D1B0008BF
:0801C0007D1B00087D1B0008F7
:1001D00010B5054C237833B9044B13B10448AFF381
:1001E00000800123237010BD2401002000000000C6
:1001F0005CBF020808B5034B1BB103490348AFF3CA
:10020000008008BD00000000280100205CBF02083B
:1002100001F0FF01102A2BDB10F0070F08D010F8B7
:10022000013B013A8B422DD010F0070F42B3F6D1BB
:10023000F0B441EA012141EA014122F007047FF0D4
:1002400000070023F0E80256083C85EA010586EA2B
:10025000010685FA47F5A3FA87F586FA47F6A5FA67
:1002600087F68EB9EED1F0BC01F0FF0102F0070273
:1002700032B110F8013B013A83EA010313B1F8D11E
:100280000020704701387047002D06BF35460338FF
:10029000073815F0010F07D1013015F4807F02BF38
:1002A000013015F4C03F0130F0BC0138704700BF89
:1002B00081F0004102E000BF83F0004330B54FEA17
:1002C00041044FEA430594EA050F08BF90EA020F84
:1002D0001FBF54EA000C55EA020C7FEA645C7FEA17
:1002E000655C00F0E2804FEA5454D4EB5555B8BF3A
:1002F0006D420CDD2C4480EA020281EA030382EAAB
:10030000000083EA010180EA020281EA0303362D3C
:1003100088BF30BD11F0004F4FEA01314FF4801C0F
:100320004CEA113102D0404261EB410113F0004F21
:100330004FEA03334CEA133302D0524263EB4303D8
:1003400094EA050F00F0A780A4F10104D5F1200E76
:100350000DDB02FA0EFC22FA05F2801841F10001D1
:1003600003FA0EF2801843FA05F359410EE0A5F1A5
:1003700020050EF1200E012A03FA0EFC28BF4CF0D6
:10038000020C43FA05F3C01851EBE37101F000458C
:1003900007D54FF0000EDCF1000C7EEB00006EEB99
:1003A0000101B1F5801F1BD3B1F5001F0CD3490823
:1003B0005FEA30004FEA3C0C04F101044FEA44527A
:1003C00012F5800F80F09A80BCF1004F08BF5FEA01
:1003D000500C50F1000041EB045141EA050130BDE1
:1003E0005FEA4C0C404141EB0101013C28BFB1F5F3
:1003F000801FE9D291F0000F04BF01460020B1FA3E
:1004000081F308BF2033A3F10B03B3F120020CDA10
:100410000C3208DD02F1140CC2F10C0201FA0CF0EE
:1004200021FA02F10CE002F11402D8BFC2F1200C53
:1004300001FA02F120FA0CFCDCBF41EA0C01904009
:10044000E41AA2BF01EB0451294330BD6FEA040452
:100450001F3C1CDA0C340EDC04F11404C4F120023D
:1004600020FA04F001FA02F340EA030021FA04F34F
:1004700045EA030130BDC4F10C04C4F1200220FAA6
:1004800002F001FA04F340EA0300294630BD21FAE4
:1004900004F0294630BD94F0000F83F4801306BFAA
:1004A00081F480110134013D4EE77FEA645C18BF9E
:1004B0007FEA655C29D094EA050F08BF90EA020F35
:1004C00005D054EA000C04BF1946104630BD91EA2D
:1004D000030F1EBF0021002030BD5FEA545C05D130
:1004E0004000494128BF41F0004130BD14F580046F
:1004F0003CBF01F5801130BD01F0004545F0FE41E3
:1005000041F470014FF0000030BD7FEA645C1ABF17
:10051000194610467FEA655C1CBF0B46024650EA4E
:10052000013406BF52EA033591EA030F41F400217A
:1005300030BD00BF90F0000F04BF0021704730B500
:100540004FF4806404F132044FF000054FF00001D5
:1005500050E700BF90F0000F04BF0021704730B596
:100560004FF4806404F1320410F0004548BF40426B
:100570004FF000013EE700BF42004FEAE2014FEAC0
:1005800031014FEA02701FBF12F07F4393F07F4F9B
:1005900081F06051704732F07F4208BF704793F09E
:1005A0007F4F04BF41F40021704730B54FF46074B1
:1005B00001F0004521F000411CE700BF50EA0102B4
:1005C00008BF704730B54FF000050AE050EA01025D
:1005D00008BF704730B511F0004502D5404261EBCD
:1005E00041014FF4806404F132045FEA915C3FF40E
:1005F000D8AE4FF003025FEADC0C18BF03325FEAAB
:10060000DC0C18BF033202EBDC02C2F1200300FA5B
:1006100003FC20FA02F001FA03FE40EA0E0021FA80
:1006200002F11444BDE600BF70B54FF0FF0C4CF46E
:10063000E06C1CEA11541DBF1CEA135594EA0C0F20
:1006400095EA0C0F00F0DEF82C4481EA030621EA5B
:100650004C5123EA4C5350EA013518BF52EA033596
:1006600041F4801143F4801338D0A0FB02CE4FF048
:100670000005E1FB02E506F00042E0FB03E54FF078
:100680000006E1FB03569CF0000F18BF4EF0010E70
:10069000A4F1FF04B6F5007F64F5407404D25FEA6C
:1006A0004E0E6D4146EB060642EAC62141EA55511F
:1006B0004FEAC52040EA5E504FEACE2EB4F1FD0C61
:1006C00088BFBCF5E06F1ED8BEF1004F08BF5FEADF
:1006D000500E50F1000041EB045170BD06F0004691
:1006E00046EA010140EA020081EA0301B4EB5C043E
:1006F000C2BFD4EB0C0541EA045170BD41F4801136
:100700004FF0000E013C00F3AB8014F1360FDEBF5A
:10071000002001F0004170BDC4F10004203C35DA36
:100720000C341BDC04F11404C4F1200500FA05F3B9
:1007300020FA04F001FA05F240EA020001F000425A
:1007400021F0004110EBD37021FA04F642EB0601D0
:100750005EEA430E08BF20EAD37070BDC4F10C04FA
:10076000C4F1200500FA04F320FA05F001FA04F2BE
:1007700040EA020001F0004110EBD37041F10001AA
:100780005EEA430E08BF20EAD37070BDC4F12005B5
:1007900000FA05F24EEA020E20FA04F301FA05F21D
:1007A00043EA020321FA04F001F0004121FA04F2C5
:1007B00020EA020000EBD3705EEA430E08BF20EA95
:1007C000D37070BD94F0000F0FD101F000464000CF
:1007D00041EB010111F4801F08BF013CF7D041EA51
:1007E000060195F0000F18BF704703F00046520055
:1007F00043EB030313F4801F08BF013DF7D043EA26
:100800000603704794EA0C0F0CEA135518BF95EADB
:100810000C0F0CD050EA410618BF52EA4306D1D162
:1008200081EA030101F000414FF0000070BD50EA81
:10083000410606BF1046194652EA430619D094EA0B
:100840000C0F02D150EA013613D195EA0C0F05D1F5
:1008500052EA03361CBF104619460AD181EA030149
:1008600001F0004141F0FE4141F470014FF0000001
:1008700070BD41F0FE4141F4780170BD70B54FF09C
:10088000FF0C4CF4E06C1CEA11541DBF1CEA13551C
:1008900094EA0C0F95EA0C0F00F0A7F8A4EB0504FE
:1008A00081EA030E52EA03354FEA013100F08880F5
:1008B0004FEA03334FF0805545EA131343EA1263BE
:1008C0004FEA022245EA111545EA10654FEA002673
:1008D0000EF000419D4208BF964244F1FD0404F52C
:1008E000407402D25B084FEA3202B61A65EB030588
:1008F0005B084FEA32024FF480104FF4002CB6EB45
:10090000020E75EB030E22BFB61A754640EA0C00C4
:100910005B084FEA3202B6EB020E75EB030E22BF04
:10092000B61A754640EA5C005B084FEA3202B6EB45
:10093000020E75EB030E22BFB61A754640EA9C0004
:100940005B084FEA3202B6EB020E75EB030E22BFD4
:10095000B61A754640EADC0055EA060E18D04FEA92
:10096000051545EA16754FEA06164FEAC30343EA32
:1009700052734FEAC2025FEA1C1CC0D111F4801FFF
:100980000BD141EA00014FF000004FF0004CB6E7F8
:1009900011F4801F04BF01430020B4F1FD0C88BF97
:1009A000BCF5E06F3FF6AFAEB5EB030C04BFB6EBA2
:1009B000020C5FEA500C50F1000041EB045170BD95
:1009C0000EF0004E4EEA113114EB5C04C2BFD4EBC2
:1009D0000C0541EA045170BD41F480114FF0000E46
:1009E000013C90E645EA060E8DE60CEA135594EAC2
:1009F0000C0F08BF95EA0C0F3FF43BAF94EA0C0FC5
:100A00000AD150EA01347FF434AF95EA0C0F7FF439
:100A100025AF104619462CE795EA0C0F06D152EA8D
:100A200003353FF4FDAE1046194622E750EA410671
:100A300018BF52EA43067FF4C5AE50EA41047FF482
:100A40000DAF52EA43057FF4EBAE12E74FEA4102E5
:100A5000B2F1E04324BFB3F5001CDCF1FE5C0DD91C
:100A600001F0004C4FEAC0024CEA5070B2F1004F66
:100A700040EB830008BF20F00100704711F0804F69
:100A800021D113F13872BCBF01F00040704741F42E
:100A900080114FEA5252C2F11802C2F1200C10FA32
:100AA0000CF320FA02F018BF40F001004FEAC12316
:100AB0004FEAD32303FA0CFC40EA0C0023FA02F3BA
:100AC0004FEA4303CCE77FEA625307D150EA013390
:100AD0001EBF4FF0FE4040F44000704701F0004060
:100AE00040F0FE4040F40000704700BF53B94AB9DF
:100AF000002908BF00281CBF4FF0FF314FF0FF3026
:100B000000F074B9ADF1080C6DE904CE00F006F800
:100B1000DDF804E0DDE9022304B070472DE9F04779
:100B2000089D04468E46002B4DD18A42944669D9D1
:100B3000B2FA82F252B101FA02F3C2F1200120FAB4
:100B400001F10CFA02FC41EA030E94404FEA1C4802
:100B5000210CBEFBF8F61FFA8CF708FB16E341EAFE
:100B6000034306FB07F199420AD91CEB030306F184
:100B7000FF3080F01F81994240F21C81023E6344A5
:100B80005B1AA4B2B3FBF8F008FB103344EA034449
:100B900000FB07F7A7420AD91CEB040400F1FF335E
:100BA00080F00A81A74240F207816444023840EA9B
:100BB0000640E41B00261DB1D4400023C5E90043D4
:100BC0003146BDE8F0878B4209D9002D00F0EF8057
:100BD0000026C5E9000130463146BDE8F087B3FA8A
:100BE00083F6002E4AD18B4202D3824200F2F98072
:100BF000841A61EB030301209E46002DE0D0C5E975
:100C0000004EDDE702B9FFDEB2FA82F2002A40F0C0
:100C10009280A1EB0C014FEA1C471FFA8CFE0126C3
:100C2000200CB1FBF7F307FB131140EA01410EFB67
:100C300003F0884208D91CEB010103F1FF3802D20E
:100C4000884200F2CB804346091AA4B2B1FBF7F008
:100C500007FB101144EA01440EFB00FEA64508D92B
:100C60001CEB040400F1FF3102D2A64500F2BB8068
:100C70000846A4EB0E0440EA03409CE7C6F12007B7
:100C8000B34022FA07FC4CEA030C20FA07F401FAFD
:100C900006F31C43F9404FEA1C4900FA06F3B1FB86
:100CA000F9F8200C1FFA8CFE09FB181140EA0141EB
:100CB00008FB0EF0884202FA06F20BD91CEB010188
:100CC00008F1FF3A80F08880884240F28580A8F1E0
:100CD00002086144091AA4B2B1FBF9F009FB101132
:100CE00044EA014100FB0EFE8E4508D91CEB0101D0
:100CF00000F1FF346CD28E456AD90238614440EA73
:100D00000840A0FB0294A1EB0E01A142C846A646F2
:100D100056D353D05DB1B3EB080261EB0E0101FA7B
:100D200007F722FA06F3F1401F43C5E900710026D8
:100D30003146BDE8F087C2F12003D8400CFA02FC2E
:100D400021FA03F3914001434FEA1C471FFA8CFE3E
:100D5000B3FBF7F007FB10360B0C43EA064300FB2E
:100D60000EF69E4204FA02F408D91CEB030300F1CC
:100D7000FF382FD29E422DD9023863449B1B89B283
:100D8000B3FBF7F607FB163341EA034106FB0EF30C
:100D90008B4208D91CEB010106F1FF3816D28B42B9
:100DA00014D9023E6144C91A46EA004638E72E4685
:100DB000284605E70646E3E61846F8E64B45A9D27D
:100DC000B9EB020864EB0C0E0138A3E74646EAE7EC
:100DD000204694E74046D1E7D0467BE7023B61449A
:100DE00032E7304609E76444023842E7704700BF03
:100DF00008210F4A30B50F4C85B00F4D084608F05A
:100E000041F9206001A94FF0FF330222284605F086
:100E100051FD9DF8043002A920688DF808309DF836
:100E20000530039300231A4608F072F9EAE700BF81
:100E3000C4BF020840010020C40100200149002075
:100E400009F0B8BD2D20000808B5642007F09EFF0A
:100E5000FBE7000010B594B01022002102240AA87C
:100E600029F006FF1422002103A829F001FF1D4BE1
:100E7000192108A81A6C42F080521A641B6C03F006
:100E800080530193019B184B1A6842F440421A6048
:100E900001221B6803F440430293029B4FF480330A
:100EA000CDE908234FF48003CDE90E434FF4D87306
:100EB000CDE91244CDE9101306F026FF06F0D2FB6F
:100EC0000F2300200721CDE903344FF4A053CDE9CF
:100ED00005034FF4805303A8079307F001F914B0FA
:100EE00010BD00BF00380240007000402DE980486E
:100EF0009BB01022002101250DA84FF0104929F0C8
:100F0000B7FE002404F04EFFC64B0DA8ADF83450D8
:100F10001094CDE90E9304F063FF17230DA88DF80C
:100F200035508DF83C308DF8425004F059FF0420C4
:100F300004F046FFBFF34F8FBFF36F8FBA4AC2F87A
:100F40005042BFF34F8FBFF36F8F536943F40033A9
:100F50005361BFF34F8FBFF36F8FC2F88440BFF36D
:100F60004F8FD2F8803043F6E074C3F3C900C3F367
:100F70004E335B0103EA0406014646EA81750139F6
:100F8000C2F86052F9D2203B13F1200FF2D1BFF327
:100F90004F8F536943F480335361BFF34F8FBFF3D7
:100FA0006F8F04F063FE0024FFF754FF142200212A
:100FB0000DA829F05DFE9D4B10219D481A6B01275D
:100FC0004FF010084FF0030B42F010024FF480591D
:100FD000984D4FF0040A1A631A6B974E02F01002F4
:100FE0000292029A1A6B42F002021A631A6B02F022
:100FF00002020392039A1A6B42F001021A631A6BFF
:1010000002F001020492049A1A6B42F040021A6341
:101010001A6B02F040020592059A1A6B42F40072B4
:101020001A631A6B02F400720692069A1A6B42F067
:1010300008021A631A6B02F008020792079A1A6BE9
:1010400042F480621A631A6B02F480620892089A72
:101050001A6B42F020021A631A6B02F02002099206
:10106000099A1A6B42F480721A631A6B02F4807246
:101070000A920A9A1A6B42F080021A631A6B02F003
:1010800080020B920B9A1A6B42F004021A63002240
:101090001B6B03F004030C930C9B05F011FA012267
:1010A0000821664805F00CFA01224FF4805164488B
:1010B00005F006FA0022C021624805F001FA00227C
:1010C0004021614805F0FCF90DA95948CDE90D878B
:1010D000CDE90F4B05F068F808230DA95748CDE975
:1010E0000D37CDE90F4405F05FF80DA95448CDE95F
:1010F0000D97CDE90F4405F057F8C0220DA95148CE
:10110000CDE90D27CDE90F4B05F04EF840220DA992
:101110004D48CDE90D27CDE90F4B05F045F84B487B
:101120004B49848001600762C0E9054404F084FEF5
:1011300048492846C5E90A44C5E90C44C5E90014F4
:10114000C5E9024404F02FFF39462846424D04F019
:10115000E3FF40234FF4C07240493046B460F4616D
:10116000B462C6E905324FF40062C6E908294FF0BF
:1011700002090722C6E900140DA9CDF84C90C6E972
:1011800003A8CDE90D92CDE90FA2CDE911B907F081
:10119000FDFA29464FF6FF7230460194C5E9007802
:1011A000C5E9027407F012FB384604F083FD2946B6
:1011B0004FF6FF723046C5E90098C5E9027407F0A2
:1011C00005FB082329464FF6FF723046C5E900B8F3
:1011D000C5E9023407F0FAFA4FF40C734FF6FF72C8
:1011E000294601933046019BAF60EB60C5E900A83A
:1011F00007F0ECFA40F22B713046194D07F005FB71
:1012000043F2D2024FF02043164E28461A60164B86
:101210002C62C5E90036C5E90247C5E90444C5E9C1
:10122000064423E01B00000300ED00E0003802400C
:1012300000040240840100206003002000280240D6
:101240000020024000080240001802406001002017
:101250000030024000B0024044010020400100A0E4
:101260001802002068474020005C004005F0B8FAF2
:101270002146284606F00EF8214628464E4D06F037
:101280002FF8342221460DEB020029F0F1FC4B4BE4
:101290002822352140F2152040F2352CAC862C61F5
:1012A00085F83640C5E900340923C5E905230B2339
:1012B000C5E9071340F21B13C5E9090340F21D13EA
:1012C0002846C5E90BC3C5E9024406F0B5F8FF217D
:1012D0004FF4806E4FF4F0724FF4887328460D94EB
:1012E0001893ADF864408DF86640354DCDE9121481
:1012F0000521CDE914E14FF04041CDE90E24CDE9BF
:10130000161222460DA9CDE9103906F060F92D48D4
:101310002D4B0462C0E90037C0E902A84FF4A06376
:101320004FF01808C0E90644C0E9048306F0AAFAA1
:1013300004F01AFB04F05EFA5C2004F01FFD00F0DC
:10134000F3FB224B28462C62C5E90036C5E902773B
:10135000C5E90444C5E9064405F042FA2146284699
:1013600005F098FF2146284605F0BAFF00F008FC7A
:1013700000F005FC07F07AFC154A2146154807F0F5
:10138000AFFC154B154A21461860154807F0A8FC1C
:10139000144B154A21461860144807F0A1FC144B61
:1013A000144A21461860144807F09AFC134B186041
:1013B00007F076FCFEE700BF6C02002000680140E9
:1013C000C401002014030020001000A000540040BD
:1013D00054C00208490E00085C0100200CC002083D
:1013E0008F1B00085401002078C00208193400083F
:1013F0009403002030C00208F10D000858010020BD
:101400000268034B9A4201D104F042BC704700BF0E
:1014100000100040704700000D4B82B00F216FF0AC
:1014200001001A6C42F080521A641A6C02F0805269
:101430000092009A5A6C42F480425A6400225B6C1B
:1014400003F480430193019B02B004F057BC00BF3A
:1014500000380240026882B0084B9A420BD1D3F8A0
:10146000302803F5006342F480521A631B6B03F4C7
:1014700080530193019B02B0704700BF00300240CF
:101480000E4B07B502689A4215D1A3F5F04305212A
:101490005A201A6B42F400021A6300221B6B03F4F9
:1014A00000030193019B04F029FC5A2003B05DF86E
:1014B00004EB04F055BC03B05DF804FB00B002403F
:1014C00010B5AAB004461422002104A829F0D0FBCC
:1014D0008422002109A829F0CBFB2368374A9342D4
:1014E0003CD14FF4804309A8099306F0C7FE08B128
:1014F000FFF790FF324C4FF44070002204A9236B99
:1015000043F002032363236B03F002030093009B69
:101510001223CDE9040303232A48CDE9062304233B
:10152000089304F041FE236C002205211F2043F4A0
:1015300000132364236C03F400130193019B04F054
:10154000DDFB1F2004F00CFC20200022052104F00C
:10155000D5FB202004F004FC2AB010BD1A4A9342A7
:10156000FAD14FF4803309A8099306F087FE08B139
:10157000FFF750FF124C4FF4C07201211348236B48
:1015800043F080032363236B03F080030293029BE9
:101590001223CDE904230323CDE90613042304A970
:1015A000089304F001FE236C43F400032364236CCE
:1015B00003F400030393039BCEE700BF00540040F5
:1015C0000038024000040240005C0040001C024061
:1015D000184A08B50368934217D102F5F2324FF466
:1015E00080711548136C23F40013136404F0C0FEDB
:1015F0004FF40071104804F0BBFE1F2004F0BEFB46
:101600002020BDE8084004F0B9BB0C4A934210D139
:1016100002F5EE3280210A48136C23F400031364B0
:1016200004F0A6FE4FF480710548BDE8084004F0C0
:101630009FBE08BD0054004000040240005C004012
:10164000001C024070B5ACB004461422002106A86C
:1016500029F00EFB842200210BA829F009FB226847
:10166000484B9A4240F08C800823052001240B93BC
:101670004FF4C07310930223CDE911304FF40033BF
:101680000BA8CDE9154306F0F9FD08B1FFF7C2FE3E
:101690003D4B002402250E265A6C06A93B4842F019
:1016A00080625A645A6C02F080620092009A1A6B4F
:1016B00042F010021A631A6B02F010020192019AB2
:1016C0001A6B42F400721A631A6B02F400720292EF
:1016D000029A1A6B42F480621A631A6B02F48062F7
:1016E0000392039A1A6B42F040021A631A6B02F0DB
:1016F00040020492049A1A6B42F480721A631B6BC4
:1017000003F480730593059B1023CDE90635CDE9DD
:1017100008440A9604F048FD4EF6FF7306A91C48DB
:101720000A96CDE90635CDE9084404F03DFDF723DE
:1017300006A918480A96CDE90635CDE9084404F013
:1017400033FD4FF4805306A91348CDE9063509232C
:10175000CDE908440A9304F027FD4FF4464306A957
:101760000E480A96CDE90635CDE9084404F01CFD83
:1017700058202246052104F0C1FA582004F0F0FA5E
:101780002CB070BD006801400038024000100240DB
:1017900000240240002802400018024000200240BD
:1017A000142200212DE9F0418AB004460DEB02001D
:1017B00029F05EFA22682C4B9A4251D12B4B02251C
:1017C000032409269A6B4FF0040805A9284842F023
:1017D000020200279A639A6B02F002020192019AB8
:1017E0001A6B42F010021A631A6B02F01002029296
:1017F000029A1A6B42F002021A631A6B02F002029A
:101800000392039A1A6B42F008021A631B6B03F0EF
:1018100008030493049BCDE90585CDE9084604F04F
:10182000C3FC402305A91348CDE905350A23CDE9BA
:101830000774099304F0B8FC05A90E480996CDE990
:101840000585CDE9077404F0AFFC4FF4605305A99A
:1018500009480996CDE90535CDE9077404F0A4FCE3
:101860000AB0BDE8F08100BF001000A000380240BF
:101870000010024000040240000C0240026808B55B
:101880000B4B9A4213D10B4A04210B48936B23F064
:101890000203936304F06CFD4421084804F068FDE2
:1018A0004FF460510648BDE8084004F061BD08BD32
:1018B000001000A000380240001002400004024066
:1018C000000C0240F0B5002387B00393294B1E683B
:1018D000002E4DD10122022703250C241A6001A9F4
:1018E000254B26489A6B42F001029A639B6B03F0EA
:1018F00001030093009B4FF68373CDE90454CDE9B7
:10190000013704F051FC48F2331301A91C48059437
:10191000CDE90137CDE9036504F046FC4CF20373D1
:1019200001A918480594CDE90137CDE9036504F014
:101930003BFC4FF63F0301A913480594CDE901375D
:10194000CDE9036504F030FC282301A90F48059474
:10195000CDE90137CDE9036504F026FC082301A990
:101960000B480594CDE90137CDE9036504F01CFC73
:1019700007B0F0BD9803002000380240001002407C
:1019800000180240000C024000140240001C0240FB
:1019900000080240214B1A6C42F0100270B51A6424
:1019A00088B01B6C054601A903A803F0100302933D
:1019B000029B06F045FC069B4BBB06F031FC184E23
:1019C000184B336040F2E733F360174BB0FBF3F38F
:1019D000013B3046736000233361B360B36107F0AD
:1019E00085F8044680B9304606F028FF044658B909
:1019F000362004F0B5F90F2D0DD8224629463620A1
:101A000004F07CF9094B1D60204608B070BD06F05B
:101A100007FC4000D3E70124F6E700BF003802408E
:101A20009C0300200010004040420F003C000020BA
:101A30007047FEE7FEE7FEE7FEE77047014805F066
:101A400091B900BFC4010020014805F0E8BB00BF08
:101A5000C4010020014806F033BF00BF9C030020F2
:101A6000014805F057BD00BF6C020020014804F09A
:101A7000C8BA00BF840100200120704708B528F0D3
:101A8000A3FF162303604FF0FF3008BD08B528F010
:101A90009BFF16230360FEE770B50D4614460E4605
:101AA000731B9C4201DC204670BDAFF3008006F83A
:101AB000010BF5E770B50D4614460E46731B9C42AC
:101AC00001DC204670BD16F8010BAFF30080F5E78E
:101AD0004FF0FF3070474FF4005300204B607047C9
:101AE00001207047002070470B4A0346116810B56B
:101AF00009B90A491160106809490A4C0344091BD5
:101B00008B4206D928F060FF0C2303604FF0FF30B2
:101B100010BD1360FCE700BFE803002060620120F5
:101B200000000520000A000070470000DFF834D0F4
:101B3000002103E00C4B5B58435004310B480C4B25
:101B400042189A42F6D30B4A02E0002342F8043BC3
:101B5000094B9A42F9D303F09FFF29F043F8FFF7AE
:101B6000C5F9704700000520A00B03080000002005
:101B7000240100202401002060620120FEE770475C
:101B800008B501F0F3F8BDE8084001F07FB801F0B6
:101B9000EFB8406870474160704700004FF0E022A6
:101BA000D2F8FC3D43F08073C2F8FC3D054B064A79
:101BB000D3F8B01F0A43C3F8B02F1A6842F00102ED
:101BC0001A607047001000E055CEACC5511A01EB09
:101BD0005301B1FBF3F07047014B5868704700BFE9
:101BE000001000E0704710B504460C2128F08BFE71
:101BF000204610BD036810B51B69044631B19847F3
:101C0000A26863689B1A1844606010BD9847A06082
:101C1000FBE70000024B7020024A1360DB681847A4
:101C200010000020EC030020704710B5044604218A
:101C300028F069FE204610BD73B50E4E0D461446C1
:101C4000336813B9002002B070BD1B69702098473B
:101C50000028F7D03368702001AA0DF106015B69F6
:101C60009847BDF8043001202B60BDF80630236092
:101C7000E9E700BFEC0300207FB501238DF81720B2
:101C80004FF47A72CDE901320DF1170200920A4643
:101C90000146054804F0AEFE10B1034804F0F1FD22
:101CA00007B05DF804FB00BF180200207FB50023D9
:101CB0000A464FF47A718DF817300123CDE90131CE
:101CC0000DF1170100910146054804F06DFF10B1B8
:101CD000034804F0D6FD9DF8170007B05DF804FB3B
:101CE00018020020032823D8DFE800F0020B131AA3
:101CF000104B102110481A68B2FA82F2520904F00F
:101D0000DFBB0C4B40215A68B2FA82F252090B48F1
:101D1000F5E7084B80219A68B2FA82F25209F6E799
:101D2000044B40210648DA68B2FA82F25209E6E72B
:101D3000704700BFF003002000040240000802408A
:101D400000180240032823D8DFE800F0020B131A22
:101D5000104B102110481A68003A18BF012204F0F5
:101D6000AFBB0C4B40215A68003A18BF01220B4808
:101D7000F5E7084B80219A68003A18BF0122F6E780
:101D8000044B40210648DA68003A18BF0122E6E712
:101D9000704700BFF003002000040240000802402A
:101DA0000018024003280FD8DFE800F00206090BF4
:101DB0001021064804F089BB40210548FAE780213C
:101DC000FBE740210348F5E7704700BF00040240ED
:101DD000000802400018024008B5032813D8DFE8C5
:101DE00000F0020A0D0F1021084804F063FB431EA7
:101DF0005842584108BD40210548F6E78021FBE7DD
:101E000040210448F1E70020F1E700BF0004024050
:101E1000000802400018024070B5084D0024012659
:101E2000E0B2FFF7D9FF18B12B68012B18BF2E6065
:101E300001340435052CF3D170BD00BFF003002040
:101E4000012380F8741080F87530704700207047C7
:101E500041640039024B18BF01211970704700BF5F
:101E6000BB5F012000207047836B0BB10846184709
:101E700070474FF6FF707047406803689B691847CA
:101E80007047000038B5044601F07CF8236820460E
:101E9000D3F88850074BD4E90F12A8470023064D0A
:101EA00084F84A302846FFF779FE0123256184F83B
:101EB0006C3038BD000000C00004002001F018B8EC
:101EC00001F01CB870B501F08FF810490023C1F87B
:101ED0008430BFF34F8FD1F8803043F6E074C3F302
:101EE000C900C3F34E335B0103EA0406024646EA27
:101EF0008275013AC1F87452F9D2203B13F1200FD8
:101F0000F2D1BFF34F8FBFF36F8F70BD00ED00E0D4
:101F100001F06CB800F0C8BF01F086B901F08EB9CD
:101F200000F0CCBF10B5044617F07AFB23682046BA
:101F3000D3F8AC30BDE81040184716F0C9BD10B555
:101F400004467C2128F0DFFC204610BD90F8773055
:101F50001BB1406803681B681847184670470000AB
:101F600090F834100D4B10B590F874401A788C42EC
:101F700009D03AB90A490B4A08881488108001220E
:101F80000C801A7010BD002AFCD0064A044914883F
:101F900008880C8010800022F3E700BFB45F0120A6
:101FA000B25F0120B05F012070B50D46194635B90A
:101FB000094B40F2D221094A094828F0D3FCC0E974
:101FC0000F52003A074B18BF01221A700368BDE890
:101FD0007040D3F88C301847DCC0020814C10208E6
:101FE00062C10208BA5F012008B5094B1B888B4209
:101FF00003D8084B1B88934205D9074B9E21074AFB
:10200000074828F0AFFC074B1980074B1A8008BD22
:10201000B05F0120B25F0120A7C102080AC2020816
:1020200062C10208B65F0120B85F0120014608B511
:10203000034B186801B1012117F00CFB012008BD0A
:10204000BC5F0120034B00225A609A60024A1A606A
:10205000704700BF00040020A4C002080121002234
:1020600008B5084606F048FF0A4B186028B90A4B25
:1020700028210A4A0A4828F075FC00220421012080
:1020800007F000F8074B186018B9074B2C21034ADA
:10209000F0E708BD1004002028C3020871C302083D
:1020A000A0C302080C040020FCC30208024B4FF03E
:1020B000FF31186806F076BF10040020014B186845
:1020C00006F0AABF10040020024B0021186806F099
:1020D00069BF00BF10040020FFF7F0BF00230348D2
:1020E00003491A46006807F013B800BF0C0400202B
:1020F0000400002013B50023074C01A91A462068EC
:1021000007F048F84FF0FF33002201A9206807F0DC
:1021100041F802B010BD00BF0C04002003685B6CE6
:1021200018470120704703689B6A18470D4B82B01F
:102130001A6B42F400021A631A6B02F40002019255
:10214000019A1A6942F400021A611A6922F4000223
:102150001A61054B054A1A614FF08062044B9A6080
:1021600002B070470038024084010020B521000809
:1021700000E100E040F2EF3070470000054B4FF007
:1021800080620360044BC3F88820BFF34F8FBFF316
:102190006F8F7047A8C5020800E100E010B5044643
:1021A0004FF45A61FFF7EAFF204628F0ACFB2046C7
:1021B00010BD0000024B1B68586803685B69184734
:1021C000BC5F012070B504460A4B0C300026254642
:1021D000602260602672667245F8203B294617F03F
:1021E00075FB04F55A63EE602435AB42FBD1204603
:1021F00070BD00BFA8C5020808B50B290BD8DFE8E1
:1022000001F01206100A0A0A0A0808080808012044
:1022100008BD0520FCE7054B6621054A054828F066
:10222000A1FB0020F4E70220F2E700BF3EC4020851
:1022300059C40208A3C4020808B50A2909D8DFE86E
:1022400001F010060E080808080606060600012020
:1022500008BD054B8721054A054828F083FB00206F
:10226000F6E70220F4E700BF3EC40208FDC40208FE
:10227000A3C402082DE9F8434F7F0C468146394636
:10228000FFF7BAFF94F81E80054648464146FFF71F
:10229000B3FF414606464846FFF7CEFFA18A628B50
:1022A000424B521A1A649A61228B521A1A61E28ABC
:1022B000586342EA014220695A646268D863DA606E
:1022C000216894F81CC080294FEA0C6226D010D8EF
:1022D000202945EA020462D0402960D004295ED05A
:1022E0002A43324B474542F40032DA615BD0304A30
:1022F00040E0B1F5807F07D0B1F5007FF0D142F426
:10230000003242F0090203E042F4003242F00A02D5
:10231000DA61E2681A625E6258612AE0A4682A43C0
:10232000211D42F40032D962DA6122785E6258617E
:1023300042B1012A21D01F4B40F211111E4A1F4801
:1023400028F010FBDA690120618822F47F4201390C
:1023500022F0100242EA0122DA61144BDA6942F0FB
:102360002002DA61DA699206FCD410229A60002811
:10237000BDD0134A1A60BDE8F8836288BCF1FF0043
:10238000D96902F1FF3418BF012021F47F4222F005
:10239000100242EA042242F01002DA61DDE744F45E
:1023A0000034DC61B7E740F20122E3E700B002400D
:1023B0000102010048C5020862C50208A3C4020860
:1023C0000102020070B50C46897FFFF735FF174BFD
:1023D000A68AE18A628B41EA06412569921B58630D
:1023E0005964DD631A642668E168082E0DD19A618C
:1023F0001A6158620E4A207F42EA0062DA610D4A91
:1024000019625D61DD601A6070BD0022D861480903
:102410001A610A0A00F4FC60C1F3C40102F47842B4
:1024200002430A439A63044AEDE700BF00B002404A
:102430000900010001020200010203004069704727
:1024400090F844007047036B23B9C06A003818BF86
:10245000012070470120704780687047043010B534
:102460000C460FC884E80F0010BD704708B5034A3A
:1024700040F20F21024B034828F074FAF0C502081D
:102480004BE002084BC6020810B50446482128F06C
:102490003AFA204610BD00002DE9F0431C46436B7C
:1024A000ADF51F7D05460E461746002B52D0002283
:1024B00003A8DFF8A890CDE901320FF013F84FF42C
:1024C000F4725021249024A808F02DFF3A4631469A
:1024D00024A809F0C1FE012124A809F02DF8022347
:1024E00024A88DF8D83009F0CBF8BDF898622B9B62
:1024F000BDF89C729E4228BF1E46419B9F4206EB40
:10250000460828BF1F46A89BA3EB4606479B9F4251
:102510001AD9012201A924A809F0FBF86B6B03EB7F
:10252000080098420ED959789A78C90009EA02221F
:1025300001F4FC610A4313F8031B42EAD10224F8B8
:10254000022BEEE73444E1E724A809F017F824A8A9
:1025500008F036FF0DF51F7DBDE8F08300F8FFFFA2
:102560000A4A02600022C0E90522C0E90722C0E948
:102570000922C0E90B22C0E90D12C0E90F2280F840
:102580004420C0E90322C0E90122704738C902088B
:1025900020B40D4611461A46036B3BB1036C806BA9
:1025A000ED1A28445DF8045B29F059B8C06AF8E7D1
:1025B000036B10B573B1036C826BC91A5318525C6C
:1025C00098785C780004DB7840EA0420104340EA05
:1025D000036010BDC36A5858FBE7036B43B1036C3B
:1025E000C91A836B5A18585C527840EA0220704727
:1025F000C36A585A7047000070B50446006B0D4618
:102600001646D8B1E36B934208D209230D4A6821DC
:102610000D4884F844300D4B28F0A4F90368DB68BA
:102620009847206B3246A16B03681B69984710B925
:102630000D2384F84430A06B256470BDE06A084423
:10264000FBE700BFC4C602084BC60208B1C60208B9
:102650002DE9F843436904462BB9234BAD21234AA6
:10266000234828F07FF908228169FFF7C5FFA16997
:10267000204643F23006043146F26437FFF798FFF4
:102680000546A169A36A0D4405F108029A4224D2C5
:10269000636909350822204625F001010133A16153
:1026A0006361FFF7A9FFD4F8188020464146FFF781
:1026B00094FF814608F104012046FFF779FFB145F8
:1026C0000546DED108F102012046FFF786FFB84239
:1026D000D7D1002DD5D0012004E001230020636173
:1026E000236AA361BDE8F88306C702084FC7020842
:1026F0004BC602082DE9F04F0446ADF51F7D8A4612
:102700001546816908229846FFF776FFA76920469B
:10271000391DFFF74DFF07F1080102460646204626
:10272000FFF76AFF636B074633B93C4B4FF4D77131
:102730003B4A3C4828F016F9002203A8CDE90132B3
:102740000EF0D0FE4FF4F4725021249024A808F02B
:10275000EAFD3246394624A809F07EFD012124A86D
:1027600008F0EAFE022324A88DF8D83008F088FF8C
:10277000BAF90260479BB34205D2012201A924A8FD
:1027800008F0C7FFF6E7BAF900904FEA4808BAF830
:1027900004702B9B08FB06554F44BAF80260DFF823
:1027A00088B03FB29F4228BF1F46BAF8063009EBF7
:1027B000490A1E44419B36B29E4228BF1E46479B93
:1027C000B3421FD2012201A924A808F0A2FF626B24
:1027D00049465244B94202F1030211D212F8020CE6
:1027E00012F8013CC0000BEA032300F4FC60034331
:1027F00012F8030C43EAD00325F811300131E9E760
:102800004544DCE724A808F0B9FE24A808F0D8FD68
:1028100001200DF51F7DBDE8F08F00BF82C70208C3
:10282000D8C702084BC6020800F8FFFF0129036859
:1028300038BF0121DB6A70B50D4604469847A842AF
:1028400004D223682046DB6A984705466B1EE6697A
:102850001022204606EB031606F10801FFF7CCFE16
:1028600006F110012046FFF7A3FE236A043B034450
:10287000C4E9055370BD00002DE9F3410021044671
:102880004822816180F84410FFF7B6FEA76904234F
:10289000634A39462046FFF77BFE40B10323614A75
:1028A000F52184F84430604B604828F05BF807F16C
:1028B000080104235E4A2046A161FFF769FE30B19A
:1028C0000423584AFD2184F844305A4BECE707F1C1
:1028D0000C010423584A2046A161FFF759FE064621
:1028E00038B105234F4A4FF4827184F84430534B7A
:1028F000DAE707F110012046FFF75AFE054620B936
:102900004F4B4FF48571474ACEE707F11408042373
:102910004C4A20464146FFF73BFE00284BD0062399
:1029200084F844300423484A07F118012046FFF791
:102930002FFE002841D0072384F844304544434FFC
:102940000C2220462946FFF757FE05F1080604230E
:102950003A4620463146FFF71BFE94F844300028E3
:102960004AD0002B4AD1A36A291DAB424AD805F1AF
:102970000C03291D2046A3610191FFF719FE304485
:10298000019960622046FFF713FE064404222046A8
:102990003146FFF731FE04232D4A31462046FFF72A
:1029A000F7FD002839D10123E6616361A369236241
:1029B00002B0BDE8F0810126B4E7002EBED007F1D9
:1029C00020012046FFF7F4FD4FF47A7307F1300140
:1029D000B0FBF3F060602046FFF7EAFD07F140012D
:1029E000A0602046FFF7E4FD07F14401E0602046C7
:1029F000FFF7DEFD2061A1E7002BB8D00A2384F8A1
:102A00004430D5E72046FFF7D3FD08300C220544BB
:102A100020462946FFF7F0FD97E70B23EFE700BFBD
:102A200032C8020850C8020837C802084BC602085C
:102A30007DC8020882C802089AC802089FC8020816
:102A4000B5C80208C1C80208C6C80208CBC8020837
:102A5000D0C80208C0E90A2100220263FFF70CBFB8
:102A600010B5002304460846E3620B6821639B68A7
:102A70009847A0622046BDE81040FFF7FDBEF0B4C5
:102A8000BDF81050BDF814602AB123B1CDE9045649
:102A9000F0BCFFF701BDF0BC704700002DE9FF4717
:102AA0009946436904460F4690462BB92A4B7A2132
:102AB0002A4A2B4827F056FF08228169FFF79CFD20
:102AC000A669204606F1080A311DFFF771FDA36AC9
:102AD00000EB0A0205469A4231D231462046FFF702
:102AE0007CFD43F2300398421DD1B11C2046FFF714
:102AF00074FD46F26433984215D1A5B12A46514679
:102B00002046C4F818A0FFF777FD0C9B01462A4623
:102B10002046CDF80080CDE901933B46FFF7AFFF9B
:102B2000636901336361A3692B448DB1A361A36918
:102B3000626A013323F001039342A3610AD10120A9
:102B4000236A6061A36180F0010004B0BDE8F087F2
:102B50000833EBE70020F6E706C70208D5C80208ED
:102B60004BC60208012070470C2070470C2303FB62
:102B70000100083070470C2303FB01000830704748
:102B80000120704740F62470704740F6247303FB21
:102B900001000830704740F6247303FB0100083041
:102BA0007047012070471020704700EB011008307B
:102BB000704700EB011008307047084600F038BE3F
:102BC000034B10B50446036015F0D8FC204610BD39
:102BD000E0C9020810B50446FFF7F2FF14212046B1
:102BE00027F091FE204610BD034B10B5044603604C
:102BF00015F0C4FC204610BDACC9020810B504464F
:102C0000FFF7F2FF40F62C71204627F07CFE2046AD
:102C100010BD0000034B10B50446036015F0AEFC78
:102C2000204610BD78C9020810B50446FFF7F2FF30
:102C30001821204627F067FE204610BD084B10B52E
:102C40000446036000F65870FFF7BAFF04F12C0049
:102C5000FFF7CAFF04F11400FFF7DCFF204610BDA8
:102C600014CA020808B50248FFF7E8FF08BD00BF14
:102C70001804002010B50446FFF7E0FF41F2CC0134
:102C8000204627F040FE204610BD00002DE9F3410C
:102C900000F05AFC0024054600F05AFC2346014689
:102CA0002246284600941CF037F8254B254A20463A
:102CB000254D1A6002F016FA24481BF095FF2B7878
:102CC000BFF35B8FDB0735D4284627F01EFE88B3A1
:102CD0001F4C204B04F5776604F1140004F12C0816
:102CE00004F6587723606060C4F80880E7602661C6
:102CF00015F046FC184B4046636115F041FC174B3C
:102D00003846E36215F03CFC154B04F66C70C4F8D1
:102D1000583F02F063FA224604F66C71304602F026
:102D200053FA304600F084FD0E4827F039FE28465D
:102D300027F0F7FD0C4802B0BDE8F041FFF7A2B85C
:102D40001860012004230020140400200800002043
:102D50001804002014CA020878C90208ACC9020885
:102D6000E0C90208652C0008882200207047000096
:102D7000014815F016BF00BF8822002070B5234E11
:102D8000234B244C3046244D2360FFF71BFA284682
:102D90001FF0CEF8214B00224FF4807120481A8694
:102DA0001A6683F86C201A67DC60C3E912121D49A9
:102DB000C3E919124FF080715967012183F8781027
:102DC00019490B604FF4F0710180184801804FF4ED
:102DD00088711748C3E90422C3E90622C3E908221F
:102DE000C3E90A22C3E90E22C3E91022C3E914226F
:102DF000C3E91622C3E9016501800E4883F8342037
:102E000001800D490A700D4A1A6070BDE814002057
:102E1000CCC00208E41400200823002088220020EF
:102E2000B05F012001000001BC5F0120B65F0120FE
:102E3000B25F0120B85F0120B45F012058C20208D0
:102E40000148FFF79BB900BFE8140020002070473D
:102E500081807047C1807047018170474181704710
:102E60007047704770477047704710B4C488036854
:102E7000121B84885B6D091B12B25DF8044B09B20A
:102E800018474FF6FF7383814FF0FF3303621368D7
:102E9000C3611060704790F825201AB190F8242083
:102EA00002B1186070470000034B902283F85A2348
:102EB00083F85823704700BF00E100E0094A0A493F
:102EC000D3680A48C3F30A03013B9BB20B80116924
:102ED000C1F30A01013901801364536B43F001030C
:102EE0005363704700680140842300208223002040
:102EF000014BD3F8AC00704700680140024B01223F
:102F0000C3F8AC105A62704700680140124A536916
:102F1000DB0370B51ED50023C2F88430BFF34F8F9A
:102F2000D2F8803043F6E074C3F3C900C3F34E33E4
:102F30005B0103EA0406014646EA81750139C2F8DD
:102F40007452F9D2203B13F1200FF2D1BFF34F8F0F
:102F5000BFF36F8F70BD00BF00ED00E070473823F6
:102F600001FB03310023435490F838300BB9036C54
:102F700083647047704710B50446582127F0C3FC9E
:102F8000204610BD38B5044615F0F7FD23685D6E88
:102F900018F0A6FE01462046A8472368084A2046A6
:102FA000D3F888500023A2F57F31A847054B064A85
:102FB0005A60064A1A649A644FF4FF225A6438BD74
:102FC00000F807C0502B0020082B002000F40BC095
:102FD00015F0BABD90F84B3013B1024B01221A70B4
:102FE00015F0BEBD8023002015F078BD15F0E1BEC0
:102FF00090F8252012B103685B69184770470000FC
:1030000008B531B1044B40F29711044A044827F047
:10301000A9FC90F8390008BD20CA020834CA020889
:10302000C1CB020810B531B1064B40F29111064AEE
:10303000064827F097FC406811460368BDE8104039
:103040001B6B184720CA020803CC0208C1CB020838
:1030500008B529B1034B7A21034A044827F082FCC2
:10306000006908BD20CA0208B4CD0208C1CB02081D
:1030700008B529B1054B8321054A064827F072FCA3
:1030800041618160C0E9063208BD00BF20CA020864
:103090006CCF0208C1CB020810B5044629B1274BFA
:1030A000A421274A274827F05DFC052A34D8DFE809
:1030B00002F003292F34393E406803681B699847A2
:1030C00050B34FF0FF31606D05F0BCFE00230122CC
:1030D00094F83E1084F83B3084F83920A360636193
:1030E00001B1226284F83E306362E36A2BB90123A6
:1030F000206D84F83A3005F08FFF606DBDE8104018
:1031000005F0D0BE002380F8393084F83E3003E06B
:10311000036200238360436110BD03620023836068
:103120004361F2E7002380F839300123EDE7003BEB
:1031300018BF012380F83D30EEE700BF20CA020827
:103140002BD10208C1CB020870B50446164629B13E
:10315000314BE721314A324827F004FC90F83930EE
:1031600033B1304B1B6893F86720436913444361C4
:10317000E36A002B4DD0E169D4E905325343A268DC
:103180004A43934220D2236A002B42D04FF0FF31B2
:10319000606D05F057FE236A0BB10023E362E36A1A
:1031A000FBB90125606D05F07DFE94F839300BB94F
:1031B000236A3BB1E36A2BB90123206D84F83A30CE
:1031C00005F02AFF284670BD94F84C000028DDD099
:1031D0009B1AB3FBF1F2994298BF02F1FF3262628F
:1031E000D4E7002294F83C50A3623046E262E268E1
:1031F0002261A2680132A260336333685B69984739
:10320000002DCED194F83D30002BCBD184F839502D
:10321000C8E70125C9E700BF20CA020802D3020897
:10322000C1CB0208BC5F0120034B4FF080629A6063
:103230004FF080729A60704700E100E0084B4FF059
:103240008062C3F88820BFF34F8FBFF36F8F4FF0BA
:103250008072C3F88820BFF34F8FBFF36F8F704722
:1032600000E100E038B590F838303BBB01228360C4
:10327000C36082634FF48072436182874FF4F072BF
:103280008361C361036243628362C3620363436316
:1032900080F83E30CA864FF4887281F834300A874D
:1032A0000B63826C036102F5FF24D0E910152944F9
:1032B0008C420AD9084B5821084A03E0084B40F2D7
:1032C000F511084A084827F04DFB026302F57F32EA
:1032D00084644263184638BD60D60208A0D602084E
:1032E000A6D40208D6D40208C1CB020810B5144CEB
:1032F000236823B3134B144A1B6C11888B4213D1E0
:10330000124B198804F090F9226892F86630013364
:1033100082F86630FEF7E2FE206816F081F90020A0
:10332000BDE81040FEF7DEBC04F07EF920680368BB
:103330001B6A98470020BDE81040FEF703BD10BD92
:10334000BC5F01200068014084230020822300200C
:103350002DE9F74304464FF4707894F83A304FF073
:10336000FF311BB9206D05F01DFEF6E7606D05F01D
:1033700069FD276BA36A266ABB42656808BF676B55
:1033800036B32B68314628465B6A98470023236290
:1033900084F83B30606D05F085FD2B684FF4F072CA
:1033A0003946CDF8008028465E694FF48873B047EF
:1033B0004FF0FF310646606D05F044FD94F83B3058
:1033C000C3B1002384F83B30606D05F06BFDC4E7AA
:1033D000636A002BDED02B682846D3E9099398470F
:1033E000616A01442846C847A368626A666213445A
:1033F000A360CFE7E7625EB12B6828469B6A9847D7
:103400000138E060002384F83C6084F83A30DBE760
:103410000123E360F6E70000014808B5FFF798FFD5
:10342000502B00200368042270B504465E6A002316
:103430000D46B0474FF0FF31606D05F003FD3821B8
:1034400001FB0543DA6A0AB10022DA6201FB054595
:10345000012385F83B30002385F83930606DBDE8E5
:10346000704005F01FBD38B500EB810304460D46E2
:10347000114658680368DB68984729462046FFF7DD
:10348000D1FF38BD70B50D461146044600EB8502EC
:103490005068026896681A46B04729462046FFF7EA
:1034A000C1FF70BD38B5164900251648FFF758F81A
:1034B000154C164B01202A46294623604FF4807391
:1034C000A564A38784F84C0084F83E50C4E91055E5
:1034D000C4E91455C4E90155C4E90355C4E90555C7
:1034E000C4E90755C4E90955C4E90B55C4E90D55AC
:1034F00005F002FD2065284605F062FC606538BDD8
:1035000088230020082B0020502B002050D80208D0
:10351000704710B50446042127F0F5F9204610BD88
:10352000012908B506D0022908D059B901F026FEB4
:10353000006808BD01F022FE4068FAE701F01EFEB7
:103540008068F6E70020F4E70048704798D8020842
:103550000F20704713B5002451B1036801AA0194EC
:103560008DF803409C680DF10303A04702B010BD25
:103570000846FBE7C0897047008A7047C0887047DB
:1035800080887047807A00F07F007047807AC00999
:103590007047704710B50446082127F0B4F920465B
:1035A00010BD7047704700F598730868496803C3F9
:1035B000704770477047416070477047064BC0F8CE
:1035C0004801C0F84C310023C0F8503100F5A27317
:1035D000C0F84031704700BF7D36000801230372F8
:1035E00070477047704710B441680346C2689B68D3
:1035F000541001EB6200D20748BF0A595DF8044B32
:1036000048BFD358184743682BB183682BB9C068AB
:1036100000F001007047184670470120704710B550
:1036200004460C2127F06FF9204610BD10B5044662
:10363000102127F068F9204610BD10B504464FF45C
:10364000AE7127F060F9204610BD08B518F048FBB0
:10365000BDE8084018F08EBF10B50446D0F8400110
:1036600058B10368DB68984738B1D4F84001036863
:103670009B6898470023C4F8403110BD2DE9F14FF5
:10368000D0E9555A0746A86803681B6A984740F670
:103690002373984205D8464BA321464A464827F053
:1036A00061F9686803681B6A98470F2803D8434B81
:1036B000A421404AF2E7E86803681B6A98470B2890
:1036C00003D83F4BA5213B4AE8E7DFF8FC9018F010
:1036D00007FB043018F029FBD9F8000010B103688B
:1036E000DB689847D9F8000010B103681B68984759
:1036F000DFF8D880D8F8000010B103685B699847FC
:10370000D7F83C0110B103685B689847D8F800000F
:1037100010B103681B689847D7F83C0110B10368E3
:103720009B689847E86800214FF0000B03685B6ACC
:103730009847244B0446C0F804B00360594680F80B
:1037400008B0A86803685B6A9847064601F04AFE1D
:103750006868594603685B6A98470546314601F038
:10376000FDFDC9F80040C7F83C51C8F80060E5B15C
:103770002B1DCAF8003030463368C5F808A0DB6856
:10378000F56398472B6828461B68984721463046C2
:1037900019F03EFF236820461B699847236820469E
:1037A0005B6901B0BDE8F04F18472B46E1E700BF69
:1037B000D4D9020862DA020866DB0208ADDB02082F
:1037C00050DC020860DD0208FC5F0120F85F012088
:1037D000F8B5044617460E4618F048FB104B002576
:1037E0001C6029460F4BC4E955760F4E23603068A4
:1037F0000E4BC4E95355C4E951350368C4E94F552C
:103800009B689847284601F06DFC336893F8762052
:103810000AB1D86C00B9986820F071F92046F8BD5B
:103820000860012014DD0208BC5F0120FCDC0208F6
:10383000064BC0F84801C0F84C310023C0F85031A5
:1038400000F5A273C0F84031704700BF7D36000814
:10385000406A7047806A704770478B88C069DB0A8E
:103860000A6850F823001044704710B5C2B1137BAA
:10387000B3B1547BD27A240204F4E0641443026AA4
:1038800098B202EB840213888B4202D192F90200B3
:1038900010BD05D80138043280B20028F3D1F7E713
:1038A0000020F5E710B504462C2127F02CF820461F
:1038B00010BD000030B58BB00446BDF860500895CF
:1038C000BDF85C5007959DF8505006959DF84C50FA
:1038D00005959DF8485004959DF8445003959DF832
:1038E000405002959DF83C500195BDF83850009528
:1038F00019F0E8FA064B20462360159BE361169BFE
:103900002362199B63621A9BA3620BB030BD00BF98
:1039100084DD02087047704770477047704703683E
:1039200070B504461B6B1546984723682046294608
:103930005B6BBDE87040184770B504461D46BDF985
:103940001060FFF7ECFF2368294620469B6B9847E1
:10395000236831462046DB6BBDE870401847000005
:10396000094A4FF48071026000228184FF21826243
:1039700080F82610C0E90122C0E90322C0E905222F
:10398000C0E90722704700BFE805030830B585B0DD
:103990000368044601816D460146D3F884303C3407
:1039A0002846984795E8070084E8070005B030BD31
:1039B00030B585B00368044641816D460146D3F8B1
:1039C00084303C342846984795E8070084E807008F
:1039D00005B030BD0022028042808280C2807047E4
:1039E00080F836107047036870B504461B6B1546A7
:1039F00098472368204629465B6EBDE8704018470B
:103A000000207047806C704770477047704710B552
:103A100004464C2126F077FF204610BD10B5044621
:103A200040F6247126F06FFF204610BD08B5FFF761
:103A3000DFFA08BD036870B55E6B0446114B8DB2AA
:103A40001B682BB9104B6C21104A114826F08AFFD5
:103A50001049828D0988914203D80F4B6D210B4A82
:103A6000F3E713F812200D4B1B6853F8220003688C
:103A70001B6B9847281A334601B22046BDE87040B8
:103A8000184700BF0C600120DCDD02081EDE0208C2
:103A900059DE020810600120A0DE02081460012037
:103AA0004FF4807100228184054982620160C0E97F
:103AB0000122C0E90322C0E90522C0E907227047BC
:103AC000980403080022C0E90122C0E90322C0E9EA
:103AD0000522C0E907224FF480728284014A026005
:103AE000704700BF20DF020838B504460D46262285
:103AF000002127F0BDF82046FFF7E4FF064B2046E3
:103B0000294623602B88E384FF2384F8283016F0AD
:103B1000BCFB204638BD00BF5006030800224FF012
:103B2000FF318260C0E90021704710B50446FFF7FD
:103B3000F5FF204610BD000010B5044600212622E6
:103B400027F096F82046FFF7BDFF094B4FF47F02A0
:103B500004F13C002360074BA3624FF6FF73A3857B
:103B60000023C4E90C322387FFF7D8FF204610BD9D
:103B700058050308CCD9020810B50446FFF7DCFF4E
:103B8000024B204623600023A36410BD88DF020897
:103B90002DE9F04F044600264FF6FF77A24604F1C8
:103BA000980804F1C40B04F1F0092DED108BB7B0A7
:103BB00019F082FBE64BE66333AD4AF8403B5046D2
:103BC000FFF7CEFE04F16C0318462D93FFF7C8FEF5
:103BD0004046FFF765FF29465846ADF8CC70FFF721
:103BE00083FF4846FFF7C8FF04F59E731846099304
:103BF000FFF7A2FF04F5C273184608EE903AFFF7EC
:103C00004FFF04F5D8732946ADF8CC7018461B93C6
:103C1000FFF76AFF04F5EE7318460A93FFF78CFF6F
:103C200004F50973184609EE103AFFF7A5FF04F5ED
:103C30001C7318460B93FFF733FF04F527732946CF
:103C4000ADF8CC7018461C93FFF74EFF04F53273A5
:103C5000184609EE903AFFF78FFF04F545731846B2
:103C60000AEE103AFFF71CFF04F550732946ADF831
:103C7000CC7018461D93FFF737FF04F55B731846A9
:103C80000C93FFF759FF04F56D7318460D93FFF77A
:103C900073FF04F5806318460AEE903AFFF700FFC1
:103CA00004F22C432946ADF8CC7018461E93FFF75A
:103CB0001BFF04F58B6318460E93FFF73DFF04F5D9
:103CC000946318460F93FFF757FF04F2EC4318462E
:103CD0000BEE103AFFF7E4FE04F5A3632946ADF8B6
:103CE000CC7018461F93FFF7FFFE04F244531846AA
:103CF0001093FFF741FF04F5B26318460BEE903ABC
:103D0000FFF71AFF04F5BB6318460CEE103AFFF7F5
:103D1000C7FE04F204632946ADF8CC701846209320
:103D2000FFF7E2FE04F5C66318461193FFF724FF80
:103D300004F27C6318460CEE903AFFF7FDFE04F2A5
:103D4000C46318460DEE103AFFF7AAFE04F5DE63D1
:103D500018461293FFF710FF04F23C7318460DEE5D
:103D6000903AFFF7E9FE04F284732946ADF8CC706F
:103D700018462193FFF7B8FE04F5F66318460EEED9
:103D8000103AFFF78DFE04F2DC7318461393FFF729
:103D9000F3FE04F6280318460EEE903AFFF7CCFE29
:103DA00004F507632946ADF8CC7018462293FFF757
:103DB0009BFE04F69C0318460FEE103AFFF770FEC8
:103DC00004F6C8032946ADF8CC7018462393FFF7D4
:103DD0008BFE04F6F40318460FEE903AFFF7ACFEA4
:103DE00004F63C1318461493FFF7C6FE04F6881336
:103DF00018460393FFF754FE04F6B41318461593C0
:103E0000FFF7BAFE04F5206318460493FFF794FE0B
:103E100004F648232946ADF8CC7018462493FFF7E2
:103E200063FE04F67423184608EE103AFFF738FED6
:103E300004F52A632946ADF8CC7018462593FFF7A0
:103E400053FE04F6CC232946ADF8CC7018462693D1
:103E5000FFF74AFE04F6F8232946ADF8CC70184661
:103E60002793FFF741FE04F6243318461693FFF715
:103E700083FE04F5376318460593FFF711FE04F639
:103E80009C3318461793FFF777FE04F6E83318467D
:103E90000693FFF751FE04F543632946ADF8CC7055
:103EA00018462893FFF720FE04F65C431846189343
:103EB000FFF7F6FD04F6884318460793FFF73CFE2C
:103EC00004F54D632946ADF8CC7018462993FFF7E9
:103ED0000BFE04F6FC4318461993FFF7E1FD04F6C8
:103EE000285318460893FFF727FE04F55763294621
:103EF000ADF8CC7018462A93FFF7F6FD04F69C53F4
:103F000018461A93FFF7CCFD04F6C8532946ADF8BE
:103F1000CC7018462B93FFF7E7FD04F6F4532946BF
:103F2000ADF8CC7018462C93FFF7DEFD4FF4887384
:103F300032465046314600934FF4F073271DFFF789
:103F4000FBFC4FF07F4351463846A36602E000BFBA
:103F500018E002080DF1B80A14F026FB4FF488733C
:103F6000324631462D9800934FF4F073FFF7E4FC8E
:103F7000234B2D993846C4F8943014F015FB4D238B
:103F800032460A21404600934B23FFF7D5FC0F220F
:103F900058463146FFF7C3FC58462946ADF8CC6079
:103FA00016F073F95946404604F5626B14F0FCFABA
:103FB0001B2214214846FFF7B2FC124B49465046DB
:103FC000C4F82031D4F8F030A4F82461D3F8843058
:103FD000984704F596739AE8070083E807000A4BB0
:103FE0001B682BB9094B6021094A0A4826F0BAFC24
:103FF000094B1B88222B13D8084B6121044AF4E794
:10400000080808FFF5F5FAFF0C600120DCDD020866
:10401000DEDE020859DE020810600120A0DE020880
:10402000DB4B2221186801F099F8DA4A03460A218D
:1040300058461AF0CBFD4846C4F838B115F0C0FF19
:10404000DFF868B3232329464846CDF8CCB0ADF855
:10405000D03015F0D5FF4046494614F0A5FA0722A6
:1040600014210998FFF75BFCCB4B09995046C4F823
:104070006C31A4F8706115F01BFD04F5BC739AE86F
:10408000070083E80700212329460998ADF8D030BE
:10409000CDF8CCB015F0B4FF4046099914F084FA7D
:1040A0004146384604F6346814F07EFA4D214B231D
:1040B000324618EE900A00915F21FFF73DFC0F2277
:1040C00031461B98FFF72BFC29461B98ADF8CC60B6
:1040D00016F0DBF81B9918EE900A14F065FA072227
:1040E0001B210A98FFF71BFCAC4B0A995046C4F8F9
:1040F0000C32A4F8106215F0DBFC04F506739AE8A4
:10410000070083E80700242329460A98ADF8D03039
:10411000CDF8CCB015F074FF0A9918EE900A14F09F
:1041200043FA1B22142119EE100AFFF7F8FB9C4BEF
:1041300019EE101A5046C4F85432D4F82432A4F8B8
:104140005862D3F88430984704F518739AE807004A
:1041500083E8070093490B68002B3FF443AF924B71
:104160001B88252B7FF648AF894A252104F648692C
:10417000106800F0F3FF874A03460A2140461AF010
:1041800025FD19EE100AC4F86C824FF0FF3815F0C7
:1041900017FF2623294619EE100AADF8D030CDF8C6
:1041A000CCB015F02DFF19EE101A18EE900A14F08D
:1041B000FBF918EE901A384614F0F6F94D207823E2
:1041C0003246B42100900B98FFF7B6FB0A22314625
:1041D0001C98FFF7A4FB082329461C98ADF8CC30A7
:1041E00016F053F81C990B9814F0DEF90D221E21DD
:1041F00019EE900AFFF793FBD4F8C83219EE901A23
:104200005046D3F88430C4F8F882A4F8FC6298478A
:1042100004F541739AE8070083E8070061490B68D9
:10422000002B3FF4DFAE604B1B881F2B7FF6E4AE04
:10423000574A1F21106800F091FF564A03460A2191
:1042400048461AF0C3FC19EE900AC4F8109304F61D
:104250005C6915F0B5FE2023294619EE900AADF8E9
:10426000D030CDF8CCB015F0CBFE19EE901A0B98EB
:1042700014F09AF90B99384614F096F94D204B2317
:1042800032464FF49B7100901AEE100AFFF754FB70
:104290000F2231461D98FFF742FB29461D98ADF8C5
:1042A000CC6015F0F2FF1D991AEE100A14F07CF99B
:1042B000072215210C98FFF732FB0C995046C4F8E1
:1042C0009C83A4F8A06315F0F3FB04F56A739AE8E5
:1042D000070083E807001E2329460C98ADF8D0306C
:1042E000CDF8CCB015F08CFE0C991AEE100A14F033
:1042F0005BF91D2214210D98FFF711FB2846C4F825
:10430000E483A4F8E863FFF709FC04F57C7395E8FF
:10431000070083E8070023490B68002B3FF462AED7
:10432000214B1B881C2B7FF667AE194A1C21106895
:1043300000F014FF174A03460A2148461AF046FCCB
:104340000D98C4F8FC934FF01D0915F039FE29466D
:104350000D98CDF8CCB0ADF8D09015F051FE0D9978
:104360001AEE100A14F020F91AEE101A384614F05A
:104370001BF94B23324640F28B1100931AEE900A40
:10438000FFF7DAFA0F2231461E98FFF7C8FA0FE05E
:104390001860012048F90208F7F7FAFFFAFAFAFF65
:1043A000FCFCFFFF0C60012010600120CCD902084A
:1043B00029461E98ADF8CC6015F067FF1E991AEEDD
:1043C000900A14F0F1F8072211210E98FFF7A7FACE
:1043D0000E995046C4F88884A4F88C6415F068FBE4
:1043E00004F294439AE8070083E80700192329465A
:1043F0000E98ADF8D030CDF8CCB015F001FE0E9986
:104400001AEE900A14F0D0F84A4614210F98FFF7DC
:1044100086FA2846C4F8D084A4F8D464FFF77EFB5B
:1044200004F2DC4395E8070083E80700DF4904F560
:1044300067650B68002B3FF4D5ADDD4B1B881A2B4D
:104440007FF6DAADDB4A1A21D9464FF00008106832
:1044500004F6846600F082FED74A03460A21284605
:10446000DFF848A31AF0B2FB0F98C4F8E85433AD54
:1044700015F0A6FD4FF01B010F98ADF8D01029469E
:10448000CDF8CCB015F0BCFD0F991AEE900A14F0DF
:104490008BF81AEE901A38464FF0090B14F084F896
:1044A0004621542350221BEE100A00910A21FFF7E7
:1044B00043FA0A2200211F98FFF731FA29461F9874
:1044C000ADF8CCB015F0E1FE1F991BEE100A14F008
:1044D0006BF8162219211098FFF721FAB74B2846DE
:1044E000A4F87885C4F87435FFF718FB04F5B063B9
:1044F00095E8070083E80700DAF80030002B3FF466
:1045000071ADAB4B1B88162B7FF676ADA94A1621F1
:10451000106800F023FEA84A03460A2130461AF02C
:1045200055FB1098C4F88C652EAE15F049FD4FF080
:1045300017011098ADF8D0102946CDF8CC9015F0A1
:104540005FFD10991BEE100A14F02EF8424613215D
:104550001BEE900AFFF7E3F999493046A4F8C485A9
:10456000C4F8C0151BEE901A15F0A2FA1BEE900AC3
:1045700000F13C0396E8070083E807004FF01800BD
:104580002946CDF8CC90ADF8D0001BEE900A15F07E
:1045900037FD1BEE901A1BEE100A14F005F81BEE07
:1045A000101A384614F000F846205423502268218F
:1045B00000901CEE100AFFF7BFF90A22414620982E
:1045C000FFF7ADF929462098ADF8CCB015F05DFEA7
:1045D00020991CEE100A13F0E7FF162219211198FA
:1045E000FFF79DF94FF0FF30A4F8648604F6986B4E
:1045F000C4F860062846FFF791FA04F26C6395E868
:10460000070083E80700DAF80030002B3FF4EAAC3B
:10461000674B1B88142B7FF6EFAC664A1421106899
:1046200000F09CFD644A03460A2158461AF0CEFA6F
:104630001198C4F878B604F6AC6B15F0C1FC1523DC
:1046400029461198ADF8D030CDF8CC9015F0D8FCB3
:1046500011991CEE100A13F0A7FF424617211CEE19
:10466000900AFFF75CF956493046A4F8B086C4F8C2
:10467000AC161CEE901A15F01BFA1CEE900A00F115
:104680003C0396E8070083E80700132329461CEE45
:10469000900ACDF8CC90ADF8D03015F0B1FC1CEEFE
:1046A000901A1CEE100A13F07FFF1CEE101A384609
:1046B00013F07AFF462054235022C62100901DEEAD
:1046C000100AFFF739F9162219211298FFF727F976
:1046D0004FF0FF30A4F82487C4F820072846FFF7DE
:1046E0001DFA04F22C7395E8070083E80700DAF856
:1046F0000030002B3FF476AC2D4B1B88102B7FF63F
:104700007BAC2C4A1021106800F028FD2A4A034691
:104710000A2158461AF05AFA1298C4F838B74FF0DE
:10472000120B15F04DFC112329461298ADF8D0302C
:10473000CDF8CC9015F064FC12991DEE100A13F020
:1047400033FF42461B211DEE900AFFF7E8F84FF0B9
:10475000FF301DEE901AA4F87087C4F86C0730463D
:1047600015F0A6F91DEE900A00F13C0396E807004B
:1047700083E8070029461DEE900ACDF8CC90ADF8ED
:10478000D0B015F03DFC1DEE901A1DEE100A13F08E
:104790000BFF0A2241462198FFF7C1F84FF00900AC
:1047A0002946ADF8CC0021980CE000BF0C60012038
:1047B000106001201860012048F90208FAFAFCFF95
:1047C000FCFCFFFF15F061FD21991DEE100A13F0AE
:1047D000EBFE1DEE101A384613F0E6FE4FF0460CC5
:1047E00054235022CDF800C04FF492711EEE100AEF
:1047F000FFF7A2F8172218211398FFF790F8DC4969
:104800002846A4F81088C4F80C18FFF787F904F6B6
:10481000180304F56C6C95E8070083E80700DAF8E4
:104820000030CDF824C0002B3FF4DCABD14B1B880B
:104830000D2B7FF6E1ABD04A0D21106800F08EFC05
:104840000A210346CD4A09981AF0C0F9099A13982B
:10485000C4F8242815F0B4FB0E2329461398ADF8AC
:10486000D030CDF8CC9015F0CBFB13991EEE100A8A
:1048700013F09AFE424616211EEE900AFFF74FF8FB
:10488000BB493046A4F85C88C4F858181EEE901A4C
:1048900015F00EF91EEE902A02F13C0396E807008F
:1048A00083E807000F2329461EEE900ACDF8CC902E
:1048B000ADF8D03015F0A4FB1EEE901A1EEE100AD3
:1048C00013F072FE0A2241462298FFF728F84FF0B3
:1048D00009002946ADF8CC00229815F0D6FC2299A3
:1048E0001EEE100A13F060FE1EEE101A384613F08A
:1048F0005BFE462254234FF4C1711FEE100A009252
:104900005022FFF719F80A2241462398FFF707F8CB
:104910004FF009002946ADF8CC00239815F0B5FCFE
:1049200023991FEE100A13F03FFE424659461FEE30
:10493000900AFEF7F4FF924B30461FEE901AC4F82F
:104940002439A4F8288915F0B3F81FEE902A02F153
:104950003C0396E8070083E807000A2329461FEE78
:10496000900A834EADF8D030CDF8CC9015F048FBCE
:104970001FEE901A1FEE100A13F016FE17221921CF
:104980001498FEF7CCFF2846C4F86C69A4F8708927
:10499000FFF7C4F804F6781395E8070083E80700EA
:1049A000DAF8003004F6D465002B3FF41BAB714BF2
:1049B0001B880B2B7FF620ABDFF8BCB10B214FF02F
:1049C0000C0ADBF8000000F0C9FB6C4A03460A2120
:1049D00028461AF0FBF8C4F8845933AD149815F042
:1049E000EFFA14982946CDF8CC90ADF8D0A015F088
:1049F00007FB14991FEE100A13F0D6FD1FEE101AD4
:104A00003846DFF8849113F0CFFD462154239B22D2
:104A1000039800910A21FEF78FFF16222421159892
:104A2000FEF77DFFC4F8E469A4F8E8892846FFF79B
:104A300075F804F51F63464604F6E86895E8070034
:104A400083E80700D9F80030002B3FF4CBAA494B8C
:104A50001B88072B7FF6D0AA0721DBF8000000F0A7
:104A60007DFB464A03460A2140461AF0AFF81598E6
:104A7000C4F8FC890DF1B80815F0A2FA0823414AE0
:104A800029461598ADF8D030339215F0B9FA15993A
:104A9000039813F089FD32461C210498FEF73FFF6E
:104AA0004FF0FF3304994046C4F8303AA4F8346A12
:104AB00014F0FEFF049901F13C0398E8070083E835
:104AC00007004FF009002F4A2946ADF8D00004989E
:104AD000339215F095FADDE9030113F065FD0A2222
:104AE00031462498FEF71BFF4FF009002946ADF828
:104AF000CC00249815F0C9FB2499039813F054FDB9
:104B00000399384613F050FD4123A022682118EE86
:104B1000100A00934FF48873FEF70EFF32463146B9
:104B20002598FEF7FCFE0B2329462598ADF8CC30DE
:104B300015F0ABFB259918EE100A13F035FD06228F
:104B400026981146FEF7EBFE0D2329462698ADF870
:104B5000CC3015F09AFB269918EE100A13F024FDBC
:104B60000A2258212798FEF7DAFE294627980DE0F9
:104B7000FCFCFFFF106001201860012048F90208CA
:104B8000F7F7FAFFCCD902080C600120ADF8CCA0F1
:104B900015F07BFB279918EE100A13F005FD0E2285
:104BA0006C211698FEF7BBFEB24B2846A4F8586B52
:104BB000C4F8543B04F6FC6AFEF7B0FF04F5366314
:104BC00095E8070083E80700D9F80030002B3FF490
:104BD00009AAA94B1B88052B7FF60EAA0521DBF835
:104BE000000000F0BBFAA54A03460A21504619F01E
:104BF000EDFF1698C4F86CAB04F5716A15F0E0F996
:104C00009F4A0623294616983392ADF8D03015F006
:104C1000F7F9169918EE100A13F0C6FC18EE101AE0
:104C2000384613F0C1FC462154239B22059800917D
:104C30004FF4C171FEF780FE14220E211798FEF783
:104C40006EFE90492846A4F8D06BC4F8CC1BFEF742
:104C500065FF04F6D83395E8070083E80700D9F824
:104C60000030002B3FF4BEA9834B1B88032B7FF63B
:104C7000C3A90321DBF8000000F070FA7F4A034665
:104C80000A2150464FF0040B19F0A0FF1798C4F802
:104C9000E4AB4FF01B0A15F093F9794A29461798AF
:104CA00033924FF00109ADF8D0B015F0A9F917997A
:104CB000059813F079FC012206981A21FEF72FFEC1
:104CC000714B06994046C4F8183CA4F81C6C14F0CB
:104CD000EFFE069B98E807003C3383E807000223B9
:104CE000674A29460698ADF8D030339215F088F916
:104CF000DDE9050113F058FC0A2231462898FEF739
:104D00000EFE4FF009002946ADF8CC00289815F0AA
:104D1000BCFA2899059813F047FC0599384613F01A
:104D200043FC96231898EB220A21CDF800A0FEF749
:104D300003FE052207983C21FEF7F1FD514940464C
:104D4000A4F8BC6CC4F8B81C079914F0B1FE079B1A
:104D500098E807003C33ADF8D09083E80700484A54
:104D600029460798339215F04BF90799189813F0D4
:104D70001BFC324631462998FEF7D1FD2946299879
:104D8000ADF8CC9015F081FA2999189813F00CFC25
:104D90001899384613F008FC96231998EB224FF423
:104DA000A071CDF800A0FEF7C7FD5A460898422131
:104DB000FEF7B5FD33494046A4F85C6DC4F8581DB4
:104DC000089914F075FE089B98E807003C33ADF88D
:104DD000D06083E807002A4A29460898339215F0E4
:104DE0000FF90899199813F0DFFB324631462A98DB
:104DF000FEF795FD29462A98ADF8CC9015F045FAB6
:104E00002A99199813F0D0FB1999384613F0CCFB66
:104E100097231A98EB22A521CDF800A0FEF78CFD70
:104E200005222B981146FEF77AFD032329462B987D
:104E3000ADF8CC3015F029FA2B991A9813F0B4FB81
:104E4000324631462C98FEF76AFD29462C98ADF87B
:104E5000CC9015F01AFA2C991A9813F0A5FB384645
:104E60001A9913F0A1FB204637B0BDEC108BBDE8BA
:104E7000F08F00BFFAFAFAFF1060012048F902082B
:104E8000CCD90208F5F5FAFFFCFCFFFF70470000E3
:104E900030B5164D8FB02C78BFF35B8F14F0010442
:104EA00021D1284625F031FDE8B13F2315221049D4
:104EB0000993104B10480893104B0A940793012351
:104EC00001940493CDE905430423CDE90243102363
:104ED000CDE90B440093FEF7EDFC094825F060FD99
:104EE000284625F01EFD04480FB030BDA82B002039
:104EF00004F60D90300B0308AC2B0020680B030860
:104F00008D4E00087047000030B5164D8FB02C78DC
:104F1000BFF35B8F14F0010421D1284625F0F5FC86
:104F2000E8B13F23012210490993104B1048089320
:104F3000104B0A940594CDE906430423CDE90332CE
:104F40001E230D220093CDE90B44CDE90144FEF769
:104F5000B1FC094825F024FD284625F0E2FC044870
:104F60000FB030BDD82B00202CF70D90600B03083C
:104F7000DC2B00206C0B0308054F00087047000075
:104F800030B5174D8FB02C78BFF35B8F14F0010450
:104F900022D1284625F0B9FCF0B13F230122114966
:104FA0000993114B11480893114B0A940594CDE9CC
:104FB00006430423CDE9033230230B22009331232F
:104FC000CDE90B44CDE90144FEF774FC094825F016
:104FD000E7FC284625F0A5FC04480FB030BD00BF13
:104FE000082C0020E4F70D90640B03080C2C002023
:104FF000700B03087D4F00080020704700207047A9
:105000000EB403B503AB002153F8042B019317F042
:1050100081FD02B05DF804EB03B070470CB407B536
:1050200004AB53F8042B019317F074FD03B05DF843
:1050300004EB02B070470000436C10B5044673B334
:10504000038F2BB9184BC521184A194825F08AFC43
:10505000C38E00EB43035B8C0BB319F009F8238F6D
:10506000012B03D8134BCB21134AEEE7E28E40F617
:105070003F10531C9BB2092B194688BFA3F10A01AC
:1050800004EB4101498C814209D10A2B04EB420215
:1050900028BF0023508C04EB4303588451842046DE
:1050A000BDE8104018F0E6BE44E002084DE00208FA
:1050B000F8E0020842E1020850E1020818F0A3BE3D
:1050C00010B586B002AC84E806001A460AAB214649
:1050D00005930193099B0093089B16F0BFF906B056
:1050E00010BD000038B518BB124B13481B6813499C
:1050F000B3B11A689C681A441C4402605A681A4486
:105100000A600F4B00221A8000F038F8054600F0C4
:1051100033F80C4B1C600C4B1D600C4B188007E0E7
:105120000B4B03600B4B0B600B4B1C68002CE8D146
:1051300038BD00BF382C00203C2C0020402C002023
:10514000442C00200C60012014600120106001201C
:105150001CF90D9080F80D90F8F90D90044B1B6828
:1051600053F82100034B1B6803EB4000704700BF5E
:10517000402C00203C2C002027207047004870471E
:10518000482C002010B5054CFFF782FE2060FFF789
:10519000BBFE6060FFF7F4FEA06010BD482C00204D
:1051A000704710B504464FF4AE7125F0ACFB2046B5
:1051B00010BD10B50446D0F8580100F013F8204691
:1051C000BDE8104016F00EBE10B50446FEF700FB19
:1051D000014B2046236010BD2CE202080022026031
:1051E0007047000013B500230446264869461A4656
:1051F000006803F0CFFF90B99DF80030033B0C2B03
:105200000DD8DFE803F0120E07161A1E22262A2EEA
:1052100032363A00206803689B680199984702B0CB
:1052200010BD20680368DB68F7E7206803681B6926
:10523000F3E7206803685B69EFE7206803689B6910
:10524000EBE720680368DB69E7E7206803681B6A0F
:10525000E3E7206803685B6ADFE7206803689B6A0E
:10526000DBE720680368DB6AD7E7206803681B6B0D
:10527000D3E7206803685B6BCFE7206803689B6B0C
:10528000CBE700BF400100207047043870477047EB
:1052900010B50446102125F036FB204610BDA0F1C4
:1052A0000400F5E7C06800F093B9A0F10400FFF72F
:1052B000F9BFC06800F0B8B9A0F10400FFF7F9BF6A
:1052C000C06800F09BB8A0F10400FFF7F9BFC06808
:1052D00000F0D6B9A0F10400FFF7F9BFC06800F0F4
:1052E000FBB9A0F10400FFF7F9BFC06800F0A0B857
:1052F000A0F10400FFF7F9BFC06800F0B3B8A0F157
:105300000400FFF7F9BFC06800F0C6B8A0F10400C0
:10531000FFF7F9BFC06800F0D9B8A0F10400FFF7AB
:10532000F9BFC06800F0ECB8A0F10400FFF7F9BFC6
:10533000C06800F0FFB8A0F10400FFF7F9BFC06833
:1053400000F012B9A0F10400FFF7F9BFC06800F047
:1053500025B9A0F10400FFF7F9BF00000022C160E9
:105360008260044A10B502F10804543204604260BD
:1053700010BD00BF70E2020870470000034B10B57B
:1053800004460360FEF740FB204610BDA8E3020878
:1053900010B50446FFF7F2FF40F62471204625F0D1
:1053A000B2FA204610BD0000426910B532B90A4B6E
:1053B00040F20111094A0A4825F0D4FAB2F908105E
:1053C000B0F908200368891A1B6B01EBD171BDE8A5
:1053D000104041F34F01184700E3020834E302088C
:1053E00057E3020810B50446FEF7D2FB014B2046F6
:1053F000236010BDA8E30208FEF707BB13B50446FF
:105400000B460A4A0A2100F6486019F0DFFB04F552
:105410003270019014F010FE0198FFF7C5FF04F5FB
:105420001C7002B0BDE8104017F09FBCA6F6020841
:1054300013B504460B460A4A0A2100F6846019F0A7
:10544000C5FB04F24450019014F0F6FD0198FFF7FB
:10545000ABFF04F2EC4002B0BDE8104017F085BC91
:10546000A6F6020813B504460B460A4A0A2100F6BE
:10547000986019F0ABFB04F5C660019014F0DCFDF8
:105480000198FFF791FF04F5BB6002B0BDE8104042
:1054900017F06BBCA6F6020813B504460B460A4A81
:1054A0000A2100F6AC6019F091FB04F5DE60019072
:1054B00014F0C2FD0198FFF777FF04F2C46002B058
:1054C000BDE8104017F051BCA6F6020813B504461B
:1054D0000B460A4A0A2100F56C6019F077FB04F2CA
:1054E000DC70019014F0A8FD0198FFF75DFF04F552
:1054F000F66002B0BDE8104017F037BCA6F602080F
:1055000013B504460B460A4A0A2100F6D46019F086
:105510005DFB04F63C10019014F08EFD0198FFF73E
:1055200043FF04F69C0002B0BDE8104017F01DBC1C
:10553000A6F6020813B504460B460A4A0A2100F6ED
:10554000E86019F043FB04F6B410019014F074FD08
:105550000198FFF729FF04F6881002B0BDE810405B
:1055600017F003BCA6F6020813B504460B460A4A18
:105570000A2100F6FC6019F029FB04F624300190A2
:1055800014F05AFD0198FFF70FFF04F6742002B0E3
:10559000BDE8104017F0E9BBA6F6020813B50446B3
:1055A0000B460A4A0A2100F5716019F00FFB04F658
:1055B0009C30019014F040FD0198FFF7F5FE04F5D2
:1055C000376002B0BDE8104017F0CFBBA6F6020866
:1055D00030B5044685B00B46124A0D4600F56260B0
:1055E0000A2119F0F3FA04F1F0001E3D019014F0C5
:1055F00023FD0198FFF7D8FE04F1980017F0B5FBE2
:10560000312D04F1C40003A994BF042300230190A9
:10561000ADF80C3014F039FE019805B0BDE830400B
:1056200017F0A3BBA6F6020830B5044685B00B46BA
:10563000124A0D4600F634600A2119F0C7FA04F543
:1056400009701E3D019014F0F7FC0198FFF7ACFEC5
:1056500004F5C27017F089FB312D04F5D87003A949
:1056600094BF072300230190ADF80C3014F00DFE19
:10567000019805B0BDE8304017F077BBA6F60208E8
:1056800030B5044685B00B46124A0D4600F65C6004
:105690000A2119F09BFA04F56D701E3D019014F07B
:1056A000CBFC0198FFF780FE04F5457017F05DFB19
:1056B000312D04F5507003A994BF072300230190F6
:1056C000ADF80C3014F0E1FD019805B0BDE83040B4
:1056D00017F04BBBA6F6020830B5044685B00B4662
:1056E000124A0D4600F567600A2119F06FFA04F5B9
:1056F00094601E3D019014F09FFC0198FFF754FE4A
:1057000004F5806017F031FB312D04F22C4003A921
:1057100094BF072300230190ADF80C3014F0B5FDC1
:10572000019805B0BDE8304017F01FBBA6F602088F
:1057300000B54FF4807295B04FF0807103460C9223
:1057400005220F9101210692002201910B921392E2
:1057500000920B48CDE90312CDE90D22CDE91122CB
:10576000102206A902924FF4800205926A4602F0C6
:1057700033F9003818BF012015B05DF804FB00BFF5
:10578000542C002000B54FF4807395B041F288325C
:1057900017480C93062306A906930023CDE90D3381
:1057A0000F930B931393CDE9113302F0D2F8E0B9C4
:1057B000022301224FF4800104900D48CDE900330B
:1057C0001023CDE9023205236A46CDE905134FF0D7
:1057D000807306A90F9341F2883302F0FDF8003878
:1057E00018BF012015B05DF804FB0120FAE700BFE7
:1057F000542C002000B54FF4807391B04FF04072EC
:105800000E480893EB2302A902934FF440630993D7
:105810004FF4005305930023CDE90A320A220F9377
:1058200007926A46CDE90D33CDE9003302F024F941
:10583000003818BF012011B05DF804FB542C002083
:10584000454B012145489A6B42F00202F0B59A633C
:105850008DB09A6B09240427002602F00202404D05
:105860000092009A9A6942F002029A619A6922F0C3
:1058700002029A611A6B42F002021A631A6B02F07A
:1058800002020192019A1A6B42F002021A631A6B29
:1058900002F002020292029A1A6B42F008021A63A4
:1058A0001A6B02F008020392039A1A6B42F0080284
:1058B0001A631A6B02F008020492049A1A6B42F0FF
:1058C00010021A631A6B02F010020592059A1A6B05
:1058D00042F008021A6340221B6B03F00803069390
:1058E000069B0223CDE907230323CDE909130A23ED
:1058F00007A90B9300F058FC07A9184807970996C9
:105900000B9400F051FC4FF4006307A928460B9458
:10591000079300F049FC4FF4805307A928460B94E5
:10592000079300F041FC07A90E4807970B9400F07D
:105930003BFC4FF4005307A928460B94079300F053
:1059400033FC32460F215C2000F0D8F95C2000F0D7
:1059500007FA0DB0F0BD00BF00380240000402405D
:10596000000C024000100240F0B5494C91B0494B88
:105970002046236001F0DAFF054610B1012011B086
:10598000F0BD01462046FFF75BFF012604234FF0E0
:105990008077C4E901631023E36097FAA7F3B3FAB1
:1059A00083F32046013B23614FF4A063C4E907550C
:1059B000C4E9053501F066FF0028DFD14FF480759A
:1059C00066230B9041F28832079002A90F90089548
:1059D0000293CDE90900CDE90D00204601F0B9FFA1
:1059E00008B10420CBE7992341F2883202A920466E
:1059F000029301F0AEFF0028F3D141F28830FFF7A7
:105A000097FE0028EDD18523079041F2883202A944
:105A1000089502930B97CDE90900CDE90C60CDE91B
:105A20000E00204601F095FF0028DAD141F28832BD
:105A30000DF10701204602F005F90028D1D1FFF74A
:105A4000A1FE0028CDD18123F022029392FAA2F286
:105A50000A219DF80730B2FA82F2204603F00F03C4
:105A600001FA02F202A9134341F288328DF807309D
:105A700001F06FFF0028B4D141F288320DF1070127
:105A8000204602F083F800283FF479AFA9E700BF71
:105A9000542C0020001000A00F490020D1F88830BD
:105AA00043F47003C1F888300C4B1A6842F00102CD
:105AB0001A6098601A6822F0847222F480321A60A8
:105AC000074A5A601A6822F480221A60D8604FF0A0
:105AD00000638B60704700BF00ED00E000380240BB
